{
  "contractName": "Totalizacao",
  "abi": [
    {
      "inputs": [
        {
          "internalType": "bytes32",
          "name": "hashExpected",
          "type": "bytes32"
        },
        {
          "internalType": "bytes32",
          "name": "hashReceived",
          "type": "bytes32"
        }
      ],
      "name": "invalidHash",
      "type": "error"
    },
    {
      "inputs": [
        {
          "internalType": "uint256",
          "name": "positionExpected",
          "type": "uint256"
        },
        {
          "internalType": "uint8",
          "name": "positionReceived",
          "type": "uint8"
        }
      ],
      "name": "invalidQRPosition",
      "type": "error"
    },
    {
      "anonymous": false,
      "inputs": [
        {
          "indexed": false,
          "internalType": "bytes32",
          "name": "hashBu",
          "type": "bytes32"
        },
        {
          "indexed": false,
          "internalType": "uint8",
          "name": "qrPosition",
          "type": "uint8"
        }
      ],
      "name": "QRCodeAdded",
      "type": "event"
    },
    {
      "inputs": [
        {
          "internalType": "bytes32",
          "name": "",
          "type": "bytes32"
        }
      ],
      "name": "bus",
      "outputs": [
        {
          "internalType": "bytes32",
          "name": "idHash",
          "type": "bytes32"
        },
        {
          "internalType": "bytes32",
          "name": "assinaturaParte1",
          "type": "bytes32"
        },
        {
          "internalType": "bytes32",
          "name": "assinaturaParte2",
          "type": "bytes32"
        },
        {
          "internalType": "uint128",
          "name": "proc",
          "type": "uint128"
        },
        {
          "internalType": "uint8",
          "name": "turno",
          "type": "uint8"
        },
        {
          "internalType": "uint32",
          "name": "pleito",
          "type": "uint32"
        },
        {
          "internalType": "uint32",
          "name": "dataPleito",
          "type": "uint32"
        },
        {
          "internalType": "string",
          "name": "unfe",
          "type": "string"
        },
        {
          "internalType": "uint128",
          "name": "municipio",
          "type": "uint128"
        },
        {
          "internalType": "uint128",
          "name": "zona",
          "type": "uint128"
        },
        {
          "internalType": "uint128",
          "name": "secao",
          "type": "uint128"
        },
        {
          "internalType": "uint128",
          "name": "quantQrsEsperado",
          "type": "uint128"
        },
        {
          "components": [
            {
              "internalType": "uint32",
              "name": "eleicao",
              "type": "uint32"
            },
            {
              "internalType": "uint8",
              "name": "cargo",
              "type": "uint8"
            },
            {
              "internalType": "uint32",
              "name": "partido",
              "type": "uint32"
            }
          ],
          "internalType": "struct Totalizacao.CheckPoint",
          "name": "cp",
          "type": "tuple"
        }
      ],
      "stateMutability": "view",
      "type": "function"
    },
    {
      "inputs": [
        {
          "internalType": "uint256",
          "name": "",
          "type": "uint256"
        }
      ],
      "name": "listaProcessos",
      "outputs": [
        {
          "internalType": "uint128",
          "name": "id",
          "type": "uint128"
        }
      ],
      "stateMutability": "view",
      "type": "function"
    },
    {
      "inputs": [
        {
          "components": [
            {
              "internalType": "bytes32",
              "name": "idHash",
              "type": "bytes32"
            },
            {
              "internalType": "bytes32",
              "name": "assinaturaParte1",
              "type": "bytes32"
            },
            {
              "internalType": "bytes32",
              "name": "assinaturaParte2",
              "type": "bytes32"
            },
            {
              "internalType": "uint128",
              "name": "proc",
              "type": "uint128"
            },
            {
              "internalType": "uint8",
              "name": "turno",
              "type": "uint8"
            },
            {
              "internalType": "uint32",
              "name": "pleito",
              "type": "uint32"
            },
            {
              "internalType": "uint32",
              "name": "dataPleito",
              "type": "uint32"
            },
            {
              "internalType": "string",
              "name": "unfe",
              "type": "string"
            },
            {
              "internalType": "uint128",
              "name": "municipio",
              "type": "uint128"
            },
            {
              "internalType": "uint128",
              "name": "zona",
              "type": "uint128"
            },
            {
              "internalType": "uint128",
              "name": "secao",
              "type": "uint128"
            },
            {
              "components": [
                {
                  "internalType": "uint8",
                  "name": "posicao",
                  "type": "uint8"
                },
                {
                  "internalType": "string",
                  "name": "qr",
                  "type": "string"
                }
              ],
              "internalType": "struct Totalizacao.QR[]",
              "name": "qrs",
              "type": "tuple[]"
            },
            {
              "internalType": "uint128",
              "name": "quantQrsEsperado",
              "type": "uint128"
            },
            {
              "components": [
                {
                  "internalType": "uint32",
                  "name": "eleicao",
                  "type": "uint32"
                },
                {
                  "internalType": "uint8",
                  "name": "cargo",
                  "type": "uint8"
                },
                {
                  "internalType": "uint32",
                  "name": "partido",
                  "type": "uint32"
                }
              ],
              "internalType": "struct Totalizacao.CheckPoint",
              "name": "cp",
              "type": "tuple"
            }
          ],
          "internalType": "struct Totalizacao.BU",
          "name": "boletimUrna",
          "type": "tuple"
        },
        {
          "components": [
            {
              "internalType": "uint32",
              "name": "id",
              "type": "uint32"
            },
            {
              "components": [
                {
                  "internalType": "uint8",
                  "name": "id",
                  "type": "uint8"
                },
                {
                  "internalType": "uint8",
                  "name": "tipo",
                  "type": "uint8"
                },
                {
                  "internalType": "uint128",
                  "name": "aptos",
                  "type": "uint128"
                },
                {
                  "internalType": "uint128",
                  "name": "csec",
                  "type": "uint128"
                },
                {
                  "internalType": "uint128",
                  "name": "nomi",
                  "type": "uint128"
                },
                {
                  "internalType": "uint128",
                  "name": "legc",
                  "type": "uint128"
                },
                {
                  "internalType": "uint128",
                  "name": "branco",
                  "type": "uint128"
                },
                {
                  "internalType": "uint128",
                  "name": "nulo",
                  "type": "uint128"
                },
                {
                  "internalType": "uint128",
                  "name": "totalVotosCargo",
                  "type": "uint128"
                },
                {
                  "components": [
                    {
                      "internalType": "uint128",
                      "name": "id",
                      "type": "uint128"
                    },
                    {
                      "internalType": "uint128",
                      "name": "votos",
                      "type": "uint128"
                    }
                  ],
                  "internalType": "struct Totalizacao.Candidato[]",
                  "name": "candidatos",
                  "type": "tuple[]"
                },
                {
                  "components": [
                    {
                      "internalType": "uint32",
                      "name": "id",
                      "type": "uint32"
                    },
                    {
                      "internalType": "uint128",
                      "name": "votosLegenda",
                      "type": "uint128"
                    },
                    {
                      "internalType": "uint128",
                      "name": "totalPartido",
                      "type": "uint128"
                    },
                    {
                      "internalType": "uint128[]",
                      "name": "candidatosPartido",
                      "type": "uint128[]"
                    }
                  ],
                  "internalType": "struct Totalizacao.Partido[]",
                  "name": "partidos",
                  "type": "tuple[]"
                }
              ],
              "internalType": "struct Totalizacao.CargoInfo[]",
              "name": "cargos",
              "type": "tuple[]"
            }
          ],
          "internalType": "struct Totalizacao.Eleicoes[]",
          "name": "eleicoes",
          "type": "tuple[]"
        }
      ],
      "name": "registrar",
      "outputs": [
        {
          "internalType": "bytes32",
          "name": "",
          "type": "bytes32"
        }
      ],
      "stateMutability": "nonpayable",
      "type": "function"
    },
    {
      "inputs": [
        {
          "internalType": "uint128",
          "name": "idProc",
          "type": "uint128"
        },
        {
          "internalType": "uint8",
          "name": "idTurno",
          "type": "uint8"
        }
      ],
      "name": "obtemInfoTurno",
      "outputs": [
        {
          "internalType": "uint8",
          "name": "",
          "type": "uint8"
        },
        {
          "internalType": "uint32",
          "name": "",
          "type": "uint32"
        },
        {
          "internalType": "uint32",
          "name": "",
          "type": "uint32"
        }
      ],
      "stateMutability": "view",
      "type": "function"
    },
    {
      "inputs": [
        {
          "internalType": "string",
          "name": "unfe",
          "type": "string"
        },
        {
          "internalType": "uint128",
          "name": "municipio",
          "type": "uint128"
        },
        {
          "internalType": "uint128",
          "name": "zona",
          "type": "uint128"
        },
        {
          "internalType": "uint128",
          "name": "secao",
          "type": "uint128"
        }
      ],
      "name": "obtemAbrangenciaUrna",
      "outputs": [
        {
          "internalType": "bytes32",
          "name": "",
          "type": "bytes32"
        }
      ],
      "stateMutability": "pure",
      "type": "function"
    },
    {
      "inputs": [
        {
          "internalType": "string",
          "name": "unfe",
          "type": "string"
        },
        {
          "internalType": "uint128",
          "name": "municipio",
          "type": "uint128"
        }
      ],
      "name": "obtemAbrangenciaMunicipio",
      "outputs": [
        {
          "internalType": "bytes32",
          "name": "",
          "type": "bytes32"
        }
      ],
      "stateMutability": "pure",
      "type": "function"
    },
    {
      "inputs": [
        {
          "internalType": "string",
          "name": "unfe",
          "type": "string"
        }
      ],
      "name": "obtemAbrangenciaUF",
      "outputs": [
        {
          "internalType": "bytes32",
          "name": "",
          "type": "bytes32"
        }
      ],
      "stateMutability": "pure",
      "type": "function"
    },
    {
      "inputs": [],
      "name": "obtemAbrangenciaNacional",
      "outputs": [
        {
          "internalType": "bytes32",
          "name": "",
          "type": "bytes32"
        }
      ],
      "stateMutability": "pure",
      "type": "function"
    },
    {
      "inputs": [
        {
          "internalType": "uint128",
          "name": "idProc",
          "type": "uint128"
        },
        {
          "internalType": "uint8",
          "name": "idTurno",
          "type": "uint8"
        },
        {
          "internalType": "uint32",
          "name": "idEleicao",
          "type": "uint32"
        },
        {
          "internalType": "bytes32",
          "name": "abrangencia",
          "type": "bytes32"
        },
        {
          "internalType": "uint8",
          "name": "idCargo",
          "type": "uint8"
        }
      ],
      "name": "obtemResultadoGeral",
      "outputs": [
        {
          "components": [
            {
              "internalType": "uint8",
              "name": "id",
              "type": "uint8"
            },
            {
              "internalType": "uint8",
              "name": "tipo",
              "type": "uint8"
            },
            {
              "internalType": "uint128",
              "name": "aptos",
              "type": "uint128"
            },
            {
              "internalType": "uint128",
              "name": "csec",
              "type": "uint128"
            },
            {
              "internalType": "uint128",
              "name": "nomi",
              "type": "uint128"
            },
            {
              "internalType": "uint128",
              "name": "legc",
              "type": "uint128"
            },
            {
              "internalType": "uint128",
              "name": "branco",
              "type": "uint128"
            },
            {
              "internalType": "uint128",
              "name": "nulo",
              "type": "uint128"
            },
            {
              "internalType": "uint128",
              "name": "totalVotosCargo",
              "type": "uint128"
            },
            {
              "components": [
                {
                  "internalType": "uint128",
                  "name": "id",
                  "type": "uint128"
                },
                {
                  "internalType": "uint128",
                  "name": "votos",
                  "type": "uint128"
                }
              ],
              "internalType": "struct Totalizacao.Candidato[]",
              "name": "candidatos",
              "type": "tuple[]"
            },
            {
              "components": [
                {
                  "internalType": "uint32",
                  "name": "id",
                  "type": "uint32"
                },
                {
                  "internalType": "uint128",
                  "name": "votosLegenda",
                  "type": "uint128"
                },
                {
                  "internalType": "uint128",
                  "name": "totalPartido",
                  "type": "uint128"
                },
                {
                  "internalType": "uint128[]",
                  "name": "candidatosPartido",
                  "type": "uint128[]"
                }
              ],
              "internalType": "struct Totalizacao.Partido[]",
              "name": "partidos",
              "type": "tuple[]"
            }
          ],
          "internalType": "struct Totalizacao.CargoInfo",
          "name": "",
          "type": "tuple"
        }
      ],
      "stateMutability": "view",
      "type": "function"
    },
    {
      "inputs": [
        {
          "internalType": "uint128",
          "name": "idProc",
          "type": "uint128"
        },
        {
          "internalType": "uint8",
          "name": "idTurno",
          "type": "uint8"
        },
        {
          "internalType": "uint32",
          "name": "idEleicao",
          "type": "uint32"
        },
        {
          "internalType": "bytes32",
          "name": "abrangencia",
          "type": "bytes32"
        },
        {
          "internalType": "uint8",
          "name": "idCargo",
          "type": "uint8"
        },
        {
          "internalType": "uint128",
          "name": "idCandidato",
          "type": "uint128"
        }
      ],
      "name": "obtemVotosDoCandidato",
      "outputs": [
        {
          "components": [
            {
              "internalType": "uint128",
              "name": "id",
              "type": "uint128"
            },
            {
              "internalType": "uint128",
              "name": "votos",
              "type": "uint128"
            }
          ],
          "internalType": "struct Totalizacao.Candidato",
          "name": "",
          "type": "tuple"
        }
      ],
      "stateMutability": "view",
      "type": "function"
    },
    {
      "inputs": [
        {
          "internalType": "uint128",
          "name": "idProc",
          "type": "uint128"
        },
        {
          "internalType": "uint8",
          "name": "idTurno",
          "type": "uint8"
        },
        {
          "internalType": "uint32",
          "name": "idEleicao",
          "type": "uint32"
        },
        {
          "internalType": "bytes32",
          "name": "abrangencia",
          "type": "bytes32"
        },
        {
          "internalType": "uint8",
          "name": "idCargo",
          "type": "uint8"
        },
        {
          "internalType": "uint128",
          "name": "idPartido",
          "type": "uint128"
        }
      ],
      "name": "obtemVotosDoPartido",
      "outputs": [
        {
          "components": [
            {
              "internalType": "uint32",
              "name": "id",
              "type": "uint32"
            },
            {
              "internalType": "uint128",
              "name": "votosLegenda",
              "type": "uint128"
            },
            {
              "internalType": "uint128",
              "name": "totalPartido",
              "type": "uint128"
            },
            {
              "internalType": "uint128[]",
              "name": "candidatosPartido",
              "type": "uint128[]"
            }
          ],
          "internalType": "struct Totalizacao.Partido",
          "name": "",
          "type": "tuple"
        }
      ],
      "stateMutability": "view",
      "type": "function"
    },
    {
      "inputs": [
        {
          "internalType": "bytes32",
          "name": "idBU",
          "type": "bytes32"
        },
        {
          "internalType": "uint8",
          "name": "posicao",
          "type": "uint8"
        }
      ],
      "name": "obtemQRCode",
      "outputs": [
        {
          "components": [
            {
              "internalType": "uint8",
              "name": "posicao",
              "type": "uint8"
            },
            {
              "internalType": "string",
              "name": "qr",
              "type": "string"
            }
          ],
          "internalType": "struct Totalizacao.QR",
          "name": "",
          "type": "tuple"
        }
      ],
      "stateMutability": "view",
      "type": "function"
    },
    {
      "inputs": [
        {
          "internalType": "uint128",
          "name": "idProc",
          "type": "uint128"
        }
      ],
      "name": "indiceListaProcesso",
      "outputs": [
        {
          "internalType": "uint128",
          "name": "",
          "type": "uint128"
        }
      ],
      "stateMutability": "view",
      "type": "function"
    }
  ],
  "bytecode": "0x6080806040523461001657612cc4908161001c8239f35b600080fdfe61022080604052600436101561001457600080fd5b60003560e01c90816313fef0d214610a32575080631d1a3779146109b75780631e988498146109725780633008a63a146108f3578063392bab711461058257806373f3d44c146104255780638d0bc42a146103f65780639d71297014610337578063a9fe225a146102dc578063d7504b7f1461024a578063da9d9bbf1461020e578063f29e2a4c146101735763f3d2a366146100af57600080fd5b3461016e57608036600319011261016e576004356001600160401b03811161016e576100df903690600401610bf5565b6100e7610ac2565b906044356001600160801b03808216820361016e57606435908116810361016e576050610163916020956040519485928861012b818601998a815193849201610d9c565b8401926001600160801b03199283809260801b168b86015260801b16603084015260801b166040820152036030810184520182610bd4565b519020604051908152f35b600080fd5b3461016e57604036600319011261016e5760ff6101bf610191610b02565b606060206040516101a181610b82565b60008152015260043560005260006020526007604060002001610e34565b5061020a6101e16001604051936101d585610b82565b85815416855201610cf6565b602083019081526040519384936020855251166020840152516040808401526060830190610dbf565b0390f35b3461016e57602036600319011261016e5760043560015481101561016e576001600160801b0361023f602092610de4565b505416604051908152f35b3461016e5761020a6102c86102c261029960056102bb61026936610b20565b979460608060409693969594955161028081610bb9565b6000815260006020820152600060408201520152612c2b565b926001600160801b038091166000526007840160205260406000205416610f08565b9101611bf9565b50612b52565b604051918291602083526020830190610c4b565b3461016e57602036600319011261016e576004356001600160401b03811161016e5761030e6020913690600401610bf5565b60405161016383828161032a8183019687815193849201610d9c565b8101038084520182610bd4565b3461016e57604036600319011261016e576060610352610ad8565b61037d61035d610b02565b916001600160801b03809116600052600260205260406000205416610f08565b600160ff61038a83610de4565b50931692836000520160205260ff604060002054169160016103ab83610de4565b508260005201602052600163ffffffff916103d08360406000205460081c1694610de4565b50906000520160205260406000205460281c169060405192835260208301526040820152f35b3461016e57600036600319011261016e5760206040518181019061212960f11b82526002815261016381610b82565b3461016e57602036600319011261016e57600435600052600060205260406000208054600182015491600281015460038201549061046560048401610cf6565b6005840154936001600160801b036006820154166001600160801b036008830154169160405193606085018581106001600160401b0382111761056c5763ffffffff976040978960096105219682958c5201548181168a5260ff8160201c1660208b015260281c168989015288519c8d9c8d5260208d0152888c01526001600160801b03811660608c015260ff8160801c1660808c0152818160881c1660a08c015260a81c1660c08a01526101e08060e08b0152890190610dbf565b956001600160801b03811661010089015260801c6101208801526101408701526101608601528281511661018086015260ff6020820151166101a08601520151166101c08301520390f35b634e487b7160e01b600052604160045260246000fd5b3461016e5760a036600319011261016e5761059b610ad8565b6105a3610b02565b906044359063ffffffff8216820361016e576084359160ff8316830361016e576106269360606101406040516105d881610b9d565b60008152600060208201526000604082015260008382015260006080820152600060a0820152600060c0820152600060e0820152600061010082015282610120820152015260643592612c2b565b6040519061063382610b9d565b6001600160801b03815460ff8116845260ff8160081c16602085015260101c16604083015260018101546001600160801b038116606084015260801c608083015260028101546001600160801b03811660a084015260801c60c083015260038101546001600160801b03811660e084015260801c61010083015260048101546106bb81611ba1565b906106c96040519283610bd4565b808252602082016004840160005260206000206000915b8383106108d6575050505061012083015260058101546106ff81611ba1565b9161070d6040519384610bd4565b818352600560208401910160005260206000206000915b8383106108b857858561014082015260405180916020825260ff815116602083015260ff60208201511660408301526001600160801b0360408201511660608301526001600160801b0360608201511660808301526001600160801b0360808201511660a08301526001600160801b0360a08201511660c08301526001600160801b0360c08201511660e08301526001600160801b0360e0820151166101008301526001600160801b03610100820151166101208301526101208101519061016090816101408501526101808401835180915260206101a0860194019060005b81811061087a57505050610140015191601f1991828583030190850152825190818152602081016020808460051b8401019501936000925b8484106108495787870388f35b9193958193959750602061086882600194868495030188528a51610c4b565b9801940194019187969593949161083c565b9194600191939496506040816108a96020938951602090816001600160801b0391828151168552015116910152565b01950191019186959392610804565b600360206001926108c885612b52565b815201920192019190610724565b6001602081926108e585612b2d565b8152019201920191906106e0565b3461016e5760031960403682011261016e57600435906001600160401b039081831161016e5761020090833603011261016e576024359080821161016e573660238301121561016e57816004013590811161016e573660248260051b8401011161016e57602092602461096a930190600401611083565b604051908152f35b3461016e57602036600319011261016e5760206001600160801b0380610996610ad8565b16600052600282526109ae8160406000205416610f08565b60405191168152f35b3461016e57604036600319011261016e576004356001600160401b03811161016e576109e96020913690600401610bf5565b6109f1610ac2565b6101636030604051809386610a0f8184019788815193849201610d9c565b8201906001600160801b03199060801b1687820152036010810184520182610bd4565b3461016e57610a9e610a9860006004610a91610a706040966020610a5536610b20565b9a91959096610a6681969496610b82565b8281520152612c2b565b926001600160801b0380911660005260068401602052866000205416610f08565b9101611be1565b50612b2d565b610ac082518092602090816001600160801b0391828151168552015116910152565bf35b602435906001600160801b038216820361016e57565b600435906001600160801b038216820361016e57565b35906001600160801b038216820361016e57565b6024359060ff8216820361016e57565b359060ff8216820361016e57565b60c090600319011261016e576001600160801b0390600435828116810361016e579160243560ff8116810361016e579160443563ffffffff8116810361016e57916064359160843560ff8116810361016e579160a435908116810361016e5790565b604081019081106001600160401b0382111761056c57604052565b61016081019081106001600160401b0382111761056c57604052565b608081019081106001600160401b0382111761056c57604052565b90601f801991011681019081106001600160401b0382111761056c57604052565b81601f8201121561016e578035906001600160401b03821161056c5760405192610c29601f8401601f191660200185610bd4565b8284526020838301011161016e57816000926020809301838601378301015290565b60606080830163ffffffff83511684526001600160801b039260a06020938286868095015116848901528660408201511660408901520151956080606082015286518094520194019160005b828110610ca657505050505090565b8351851686529481019492810192600101610c97565b90600182811c92168015610cec575b6020831014610cd657565b634e487b7160e01b600052602260045260246000fd5b91607f1691610ccb565b9060405191826000825492610d0a84610cbc565b908184526001948581169081600014610d795750600114610d36575b5050610d3492500383610bd4565b565b9093915060005260209081600020936000915b818310610d61575050610d3493508201013880610d26565b85548884018501529485019487945091830191610d49565b915050610d3494506020925060ff191682840152151560051b8201013880610d26565b60005b838110610daf5750506000910152565b8181015183820152602001610d9f565b90602091610dd881518092818552858086019101610d9c565b601f01601f1916010190565b600154811015610e1e57600160005260011b7fb10e2d527612073b26eecdfd717e6a320cf44b4afac2b0732d9fcbe2b7fa0cf60190600090565b634e487b7160e01b600052603260045260246000fd5b8054821015610e1e5760005260206000209060011b0190600090565b903590601e198136030182121561016e57018035906001600160401b03821161016e57602001918160051b3603831361016e57565b903590603e198136030182121561016e570190565b90821015610e1e57610eb19160051b810190610e85565b90565b3560ff8116810361016e5790565b903590601e198136030182121561016e57018035906001600160401b03821161016e5760200191813603831361016e57565b356001600160801b038116810361016e5790565b6001600160801b039081166000190191908211610f2157565b634e487b7160e01b600052601160045260246000fd5b3563ffffffff8116810361016e5790565b818110610f53575050565b60008155600101610f48565b60ff610f6a83610eb4565b1660ff19825416178155600180910191610f8960209182810190610ec2565b91906001600160401b03831161056c57610fa38554610cbc565b601f8111611048575b50600091601f8411600114610fe85750928293918392600094610fdd575b50501b916000199060031b1c1916179055565b013592503880610fca565b9183601f1981168783528483209483905b8883831061102e5750505010611014575b505050811b019055565b0135600019600384901b60f8161c1916905538808061100a565b868601358855909601959384019387935090810190610ff9565b611073908660005283600020601f860160051c810191858710611079575b601f0160051c0190610f48565b38610fac565b9091508190611066565b8035928315611a4f5761109a610160830183610e50565b15610e1e5760ff6110b56110b083600194610e85565b610eb4565b1614806119ff575b61198d5783600052600060205260409283600020541580611961575b61185b575b6110ec610160840184610e50565b15610e1e576110b0816110fe92610e85565b85600052600060205260ff6007866000200154911610600014611122575050505090565b611130610160840184610e50565b15610e1e576110b08161114292610e85565b85600052600060205260078560002001549060018201809211610f215760ff16036117fc57611175610160840184610e50565b15610e1e5760ff61118b6110b083600194610e85565b161115611453576111ec918560005260006020526001600386600020015460ff6111d46111cf6001600160801b0380851660005260026020528a6000205416610f08565b610de4565b509160801c1660005201602052846000209186611c73565b508260005260006020526007826000200161120b610160830183610e50565b15610e1e578061121a91610e85565b908054600160401b81101561056c5761123891600182018155610e34565b91909161143d5761124891610f5f565b611256610160820182610e50565b91909115610e1e5760096112706110b08461132195610e85565b856000526000602052846000209060ff6001600160801b03600884015416911614611425575b01805463ffffffff9190826101a08501816112b082610f37565b16828416141580611412575b6113f5575b50505060ff815460201c166101c084019060ff6112dd83610eb4565b161415806113e1575b6113b3575b5081815460281c16916101e08401928161130485610f37565b161415908161139f575b50611369575b5050610160810190610e50565b91909115610e1e576113576110b0837fc6f5ac56e5e492e3a61b7c889b34d51ff3c90f9dc5fc9dea4d45a9c4298125b194610e85565b60ff825191858352166020820152a190565b61137561139892610f37565b68ffffffff000000000082549160281b169068ffffffff00000000001916179055565b3880611314565b90506113aa83610f37565b1615153861130e565b6113bf6113db91610eb4565b825464ff00000000191660209190911b64ff0000000016178255565b386112eb565b5060ff6113ed82610eb4565b1615156112e6565b6113fe90610f37565b169063ffffffff19161781553882816112c1565b508161141d82610f37565b1615156112bc565b60208301356001820155848301356002820155611296565b634e487b7160e01b600052600060045260246000fd5b50508260005260006020528160002083815560208201356001820155828201356002820155600381016001600160801b0361149060608501610ef4565b8254911660ff60801b6114a560808701610eb4565b60801b1663ffffffff60881b6114bd60a08801610f37565b60881b169163ffffffff60a81b6114d660c08901610f37565b60a81b169366ffffffffffffff60c81b16171717179055600481016114fe60e0840184610ec2565b906001600160401b03821161056c5781906115198454610cbc565b601f81116117ca575b50600090601f831160011461175f57600092611754575b50508160011b916000199060031b1c19161790555b6115a7600582016001600160801b0361156a6101008601610ef4565b166001600160801b03198254161781556115876101208501610ef4565b81546001600160801b031660809190911b6001600160801b031916179055565b600681016001600160801b036115c06101408501610ef4565b166001600160801b03198254161790556115de610160830183610e50565b90600160401b821161056c5760078301548260078501558083106116b3575b5080600784016000526020600020906000925b84841061168d575050505050600981600861168893016001600160801b0361163b6101808701610ef4565b166001600160801b03198254161790550163ffffffff61165e6101a08501610f37565b1663ffffffff1982541617815561167b6113bf6101c08501610eb4565b6113756101e08401610f37565b611248565b60026020826116a76116a160019587610e85565b87610f5f565b01930193019291611610565b6001600160ff1b038181168203610f215783168303610f21576007840160005260206000208360011b81015b8260011b820181106116f25750506115fd565b80600060029255600181016117078154610cbc565b9081611716575b5050016116df565b81601f6000931160011461172e5750555b388061170e565b90808391825261174d601f60208420940160051c840160018501610f48565b5555611727565b013590503880611539565b909150601f198316918460005260206000209260005b8181106117b25750908460019594939210611798575b505050811b01905561154e565b0135600019600384901b60f8161c1916905538808061178b565b91936020600181928787013581550195019201611775565b6117f690856000526020600020601f850160051c8101916020861061107957601f0160051c0190610f48565b38611522565b505082600052600060205260078260002001549060018201809211610f21578061016061182a920190610e50565b15610e1e576044926118416110b08360ff94610e85565b9051926310c37b6d60e31b84526004840152166024820152fd5b6001600160801b038061187060608601610ef4565b169081600052600260205280866000205416801560001461191257506001549080821691600160401b81101561056c578060016118b09201600155610de4565b50506118bb82610de4565b50916001600160801b03199284848254161790556118db8187878a611a73565b6118e9575b505050506110de565b60010192818411610f2157600052600260205286600020921690825416179055388080806118e0565b91505060016119236111cf83610f08565b5060ff61193260808801610eb4565b166000520160205260ff8560002054161561194e575b506110de565b61195a90838386611a73565b5038611948565b50611970610160840184610e50565b15610e1e5760ff6119866110b083600194610e85565b16146110d9565b8361199c610160840184610e50565b91909115610e1e576119bd6119b383604494610e85565b6020810190610ec2565b6119e160206040518381948383019687378101600083820152038084520182610bd4565b5190209060405191635578369360e11b835260048301526024820152fd5b50611a0e610160830183610e50565b15610e1e57611a216119b3828793610e85565b611a4560206040518381948383019687378101600083820152038084520182610bd4565b51902014156110bd565b50505050600090565b9190916001600160801b0380809416911601918211610f2157565b9190611a81610eb194610de4565b50926001608082019460ff611a9587610eb4565b166000520160205260ff611aad604060002095610eb4565b1684549064ffffffff00611ac360a08501610f37565b60081b169164ffffffffff191617178455611b07611ae360c08301610f37565b855468ffffffff0000000000191660289190911b68ffffffff000000000016178555565b35611c73565b600092918154611b1c81610cbc565b92600191808316908115611b755750600114611b39575b50505050565b90919293945060005260209081600020906000915b858310611b645750505050019038808080611b33565b805485840152918301918101611b4e565b60ff1916845250505081151590910201915038808080611b33565b60ff1660ff8114610f215760010190565b6001600160401b03811161056c5760051b60200190565b63ffffffff809116908114610f215760010190565b8051821015610e1e5760209160051b010190565b8054821015610e1e5760005260206000200190600090565b8054821015610e1e576000526003602060002091020190600090565b8054600160401b81101561056c5760018101808355811015610e1e57611c6f9160005260106001600160801b0360206000208360011c0194169160041b1683549060031b916001600160801b03809116831b921b19161790565b9055565b60a052608052610100526040519091611c8b82610bb9565b60a0516000526000602052611cc0611d0160306040600020600581015460068201546040519586936004602086019101611b0d565b916001600160801b03198160801b1683526001600160801b03191660108301526001600160801b03199060801b166020820152036010810184520182610bd4565b60208151910120825260a05160005260006020526004611d3c611d5c6010604060002060058101546040519485926020840197889101611b0d565b906001600160801b03199060801b16815203600f19810184520182610bd4565b519020602083015260a05160005260006020526004604060002001604051611d9a81611d8c602082018095611b0d565b03601f198101835282610bd4565b5190206040830152604051602081019061212960f11b825260028152611dbf81610b82565b51902060608301526000925b610100518060ff86161015612b2357611dee611df39160ff871690608051610e9a565b610f37565b63ffffffff811615612b00575b63ffffffff9093929193166000526001830160205260406000209260006101a0525b6101a051600460ff82161015612aeb5760051b611fe016830151600090815260208590526040812060c0526101c052905b611e73611e6960ff871661010051608051610e9a565b6020810190610e50565b6101c05161ffff169150811015612ace57611e9a611e6960ff881661010051608051610e9a565b90911015610e1e57621fffe06101c05160051b168101359061015e198136030182121561016e5761016082820136031261016e57611edd6040518060e052610b9d565b611ee8828201610b12565b60e05152611efa602083830101610b12565b602060e0510152611f0f604083830101610aee565b604060e0510152611f24606083830101610aee565b606060e0510152611f39608083830101610aee565b608060e0510152611f4e60a083830101610aee565b60a060e051015260c061012052611f6960c083830101610aee565b60c060e051015260e061014052611f8460e083830101610aee565b60e080510152611f9961010083830101610aee565b61010060e05101526001600160401b0361012083830101351161016e573681830161012081013501601f01121561016e578082016101208101350135611fde81611ba1565b90611fec6040519283610bd4565b80825260208201903660208260061b61012088880101358888010101011161016e5783850161012081013501602001915b84860161012081013501600683901b016020018310612a8f5750505061012060e051015261014082820101356001600160401b03811161016e5736601f828585010101121561016e578083830101359061207682611ba1565b936120846040519586610bd4565b828552602085016101e0523660208460051b848488010101011161016e5760208282860101015b60208460051b84848801010101811061293d57505050505061014060e05101526121b560e05160ff81511690811561291b575b6121466001600160801b03604062010000600160901b039360ff861660005260c0516020528160002095866102005286549060ff821615612909575b50508554600860ff82821c16156128ed575b50500151169254926001600160801b038460101c16611a58565b60101b16610200519162010000600160901b03191617815561158760016001600160801b03606060e0510151169201916001600160801b0361218c845492828416611a58565b16906001600160801b031916178083556001600160801b03608060e0510151169060801c611a58565b6122146001600160801b0360a060e05101511661158760026102005101916001600160801b036121e9845492828416611a58565b16906001600160801b031916178083556001600160801b036101205160e0510151169060801c611a58565b6122746001600160801b036101405160e05101511661158760036102005101916001600160801b0361224a845492828416611a58565b16906001600160801b031916178083556001600160801b0361010060e0510151169060801c611a58565b60005b61012060e0510151805163ffffffff83161015612483576122a76001600160801b039163ffffffff841690611bcd565b515116600052600661020051016020526001600160801b0360406000205416801560001461242a57506122e763ffffffff821661012060e0510151611bcd565b5190600461020051018054600160401b81101561056c5761230d91600182018155611be1565b92909261143d5780516020919091015160801b6001600160801b0319166001600160801b0391909116179091556123bd906001600160801b036004610200510154166001600160801b0361236e63ffffffff841661012060e0510151611bcd565b515116600052600661020051016020526040600020906001600160801b03198254161790555b60a051600052600060205263ffffffff60096040600020015460281c16806123c2575b50611bb8565b612277565b600052600761020051016020526124246123f86123ec6001600160801b0360406000205416610f08565b60056102005101611bf9565b5060026001600160801b0361241a63ffffffff861661012060e0510151611bcd565b5151169101611c15565b386123b7565b9061247e6123bd926115876124726124666001600160801b03602061245c63ffffffff891661012060e0510151611bcd565b5101511693610f08565b60046102005101611be1565b5091825460801c611a58565b612394565b50506000610180525b61014060e051015180519063ffffffff6101805116918210156128cd5763ffffffff916124b891611bcd565b51511680156128aa575b63ffffffff8116600052600761020051016020526001600160801b03604060002054168061016052156000146127355761250c63ffffffff610180511661014060e0510151611bcd565b51600561020051018054600160401b81101561056c5761253191600182018155611bf9565b91909161143d5780518254602080840151640100000000600160a01b03911b1663ffffffff9092166001600160a01b031990911617178255606090600183016001600160801b036040830151166001600160801b031982541617905501518051906001600160401b03821161056c57600160401b821161056c5760206002918285015484848701558085106126dc575b5001920160005260206000209060005b8160011c8110612696575060011981168103612638575b50505060076102005163ffffffff6001600160801b036005830154169316600052016020526040600020906001600160801b03198254161790555b61262f61018051611bb8565b6101805261248c565b60009260005b60011983168303811061265a57505060011c01553880806125e8565b9093602061268d6001926001600160801b03885116908560041b60031b916001600160801b03809116831b921b19161790565b9501910161263e565b6000805b600281106126af5750838201556001016125d1565b85519095916001916020916001600160801b0360078a901b81811b199092169216901b179201950161269a565b61270f908487016000526001846000209160108860041b1680612715575b500160011c8101906001870160011c01610f48565b386125c1565b6000199081848b01851c86010191825491890360031b1c169055386126fa565b5092906127b16001600160801b03602061275f63ffffffff610180511661014060e0510151611bcd565b5101511661278a6127756123ec61016051610f08565b50916001600160801b03835460201c16611a58565b640100000000600160a01b0382549160201b1690640100000000600160a01b031916179055565b6001600160801b0360406127d563ffffffff610180511661014060e0510151611bcd565b5101511660016127ea6123ec61016051610f08565b5001906001600160801b03612803835492828416611a58565b16906001600160801b03191617905560005b606061283163ffffffff610180511661014060e0510151611bcd565b5101515163ffffffff8216908110156128a1579061289761289c9260026001600160801b0361288e6128686123ec61016051610f08565b5093606061288663ffffffff610180511661014060e0510151611bcd565b510151611bcd565b51169101611c15565b611bb8565b612815565b50509092612623565b5060a051600052600060205263ffffffff60096040600020015460281c166124c2565b50509061ffff806101c05116908114610f21576001016101c05290611e53565b61ff00906020840151901b169061ff001916178655388061212c565b60ff169060ff1916178655388061211a565b60a05160009081526020818152604090912060090154901c60ff1691506120de565b6001600160401b0381351161016e57608085830184018235013603601f19011261016e5760405161296d81610bb9565b60208235858589010101013563ffffffff8116810361016e57815261299b6040833586868a01010101610aee565b60208201526129b36060833586868a01010101610aee565b60408201526080823585858901010101356001600160401b03811161016e5736603f82853588888c0101010101121561016e57602081843587878b0101010101356129fd81611ba1565b91612a0b6040519384610bd4565b81835260208301903660408460051b838d8c8c8c35920101010101011161016e57868a0188018635018101604001915b60408460051b838d8c8c8c35920101010101018310612a775750505050906020929160608201526101e05152816101e051016101e052016120ab565b60208091612a8485610aee565b815201920191612a3b565b60408336031261016e5760206040918251612aa981610b82565b612ab286610aee565b8152612abf838701610aee565b8382015281520192019161201d565b50929192612ade6101a051611b90565b6101a05290929192611e22565b5091925092612af990611b90565b9290611dcb565b5060a051600052600060205263ffffffff80600960406000200154169050611e00565b5050915050600190565b90604051612b3a81610b82565b91546001600160801b038116835260801c6020830152565b90604091825192612b6284610bb9565b8382549163ffffffff831682526001600160801b039283602091821c16818401526001938085870154168385015260028096019083518097889585855493848152019460005285600020906000925b848b850110612c095750509060609886612be79897969594935494848410612bf8575b50505010612beb575b5090500384610bd4565b0152565b60801c8152018038612bdd565b851686529094019301388581612bd4565b8254808716885260801c878901528b98509581019592830192918a0191612bb1565b92909160016040959360ff612c5a6111cf6001600160801b038060009a168a5260026020528a8a205416610f08565b50911686520160205263ffffffff6001868620019116845260205283832090835260205260ff83832091168252602052209056fea26469706673582212200af2f5adbdc998fa53785e1281710f47520d3c7dbb525cf0d8fa242e7200e9ba64736f6c63430008120033",
  "immutableReferences": {},
  "source": "// SPDX-License-Identifier: MIT\r\n\r\npragma solidity 0.8.18;\r\n\r\nerror invalidHash(bytes32 hashExpected, bytes32 hashReceived);\r\nerror invalidQRPosition(uint positionExpected, uint8 positionReceived);\r\n\r\ncontract Totalizacao {\r\n\r\n    mapping(bytes32 => BU) public bus; // os hashes sero sempre diferentes, devido s identificaes diferentes nas eleies, como o nmero do processo eleitoral e o pleito\r\n        \r\n    ProcessoEleitoral[] public listaProcessos; \r\n    mapping(uint128 => uint128) private indiceProcesso; // indice somado de 1. 0 indica inexistncia\r\n\r\n    struct ProcessoEleitoral {\r\n        uint128 id; // nmero do processo eleitoral\r\n        mapping(uint8 => Turno) turnos;\r\n    }\r\n\r\n    struct Turno {\r\n        uint8 id; // 1 - primeiro turno; 2 - segundo turno\r\n        uint32 pleito; // nmero do pleito\r\n        uint32 dataPleito; // data do pleito\r\n        mapping(uint32 => Eleicao) eleicoes;\r\n    }\r\n\r\n    struct Eleicao {\r\n        mapping(bytes32 => Abrangencia) abrangencia; // Calculada atravs de hash (ZZ ou BR ou RJ ou RJ<MUNIC> ou ZZ<MUNIC> ou RJ<MUNIC><ZONA><SECAO>)\r\n    }\r\n\r\n    struct Abrangencia { // Exterior, Brasil, uma Unidade federativa do Brasil, Municpio ou urna especfica\r\n        mapping(uint8 => Cargo) cargos;\r\n    }\r\n\r\n    struct Cargo {\r\n        CargoInfo info;\r\n        mapping(uint128 => uint128) indiceCandidato; // mapeamento do candidato a um determinado cargo para o indice no vetor. 0 - indica inexistncia\r\n        mapping(uint128 => uint128) indicePartido; // somente para cargos proporcionais, mapeamento do partido em um determinado cargo para o indice no vetor. 0 - indica inexistncia\r\n    }\r\n\r\n    struct CargoInfo {\r\n        uint8 id; // cdigo do cargo\r\n        uint8 tipo; // tipo do cargo. Diferente do manual do QR Code, tipo 0 significa que o cargo est incompleto ou no existe. 1  Majoritrio; 2  Proporcional; 3  Consulta\r\n        uint128 aptos; // quantidade de eleitores aptos a votarem no cargo\r\n        uint128 csec; // quantidade de comparecimento no cargo sem candidatos\r\n        uint128 nomi; // quantidade de votos nominais para o cargo\r\n        uint128 legc; // quantidade de votos de legenda para o cargo - apenas para cargos proporcionais\r\n        uint128 branco; // quantidade de votos em branco para o cargo\r\n        uint128 nulo; // quantidade de votos nulos para o cargo\r\n        uint128 totalVotosCargo; // total de votos apurados para o cargo\r\n        Candidato[] candidatos; // lista de candidatos para o cargo e a quantidade de votos recebidas\r\n        Partido[] partidos; // lista de partidos\r\n    }\r\n\r\n    struct Candidato {\r\n        uint128 id; // identificao de um candidato referente a um cargo com determinada abrangncia\r\n        uint128 votos; // votos de um candidato referente a um cargo com determinada abrangncia\r\n    }\r\n\r\n    struct Partido { // somente para cargos proporcionais\r\n        uint32 id; // nmero do partido\r\n        uint128 votosLegenda;\r\n        uint128 totalPartido;\r\n        uint128[] candidatosPartido; // lista de candidatos do partido para o cargo\r\n    }\r\n    \r\n\r\n    struct BU {\r\n        bytes32 idHash; // hash do contedo do primeiro QR Code\r\n        bytes32 assinaturaParte1;\r\n        bytes32 assinaturaParte2;\r\n        uint128 proc; // nmero do processo eleitoral\r\n        uint8 turno; // 1 - primeiro turno; 2 - segundo turno\r\n        uint32 pleito; // nmero do pleito\r\n        uint32 dataPleito; // data do pleito\r\n        string unfe; // Unidade Federativa - Exemplo: RJ \r\n        uint128 municipio;\r\n        uint128 zona;\r\n        uint128 secao;\r\n        QR[] qrs;\r\n        uint128 quantQrsEsperado; // quantidade de qr codes esperado\r\n        CheckPoint cp; // indica onde a insero de um QR Code parou\r\n    }\r\n\r\n    struct QR {\r\n        uint8 posicao; // posio do qr code diante do conjunto de qrs codes\r\n        string qr; // contedo completo do QR Code\r\n    }\r\n\r\n    struct CheckPoint { // onde a insero de um QR Code parou\r\n        uint32 eleicao;\r\n        uint8 cargo;\r\n        uint32 partido;\r\n    }\r\n\r\n    struct Eleicoes {\r\n        uint32 id;\r\n        CargoInfo[] cargos;\r\n    }\r\n\r\n\r\n\r\n    event QRCodeAdded(\r\n        bytes32 hashBu,\r\n        uint8 qrPosition\r\n    );\r\n\r\n    function registrar(BU calldata boletimUrna, Eleicoes[] calldata eleicoes) \r\n    public \r\n    returns(bytes32) { \r\n\r\n        bytes32 hashBu = boletimUrna.idHash;\r\n\r\n        if (hashBu == bytes32(0)) { // caso em que a leitura foi interrompida no meio do processo de insero. Sinaliza  aplicao de que  necessrio ler primeiro o primeiro QR Code para obter a identificao do BU\r\n            return bytes32(0);\r\n        }\r\n\r\n        if(boletimUrna.qrs[0].posicao == 1 && keccak256(abi.encodePacked(boletimUrna.qrs[0].qr)) != boletimUrna.idHash) {\r\n            \r\n            revert invalidHash({ // hash da string do QR Code  diferente da informada no parmetro\r\n                hashExpected: keccak256(abi.encodePacked(boletimUrna.qrs[0].qr)),\r\n                hashReceived: boletimUrna.idHash\r\n            });\r\n\r\n        }\r\n\r\n        if(bus[hashBu].idHash == bytes32(0) && boletimUrna.qrs[0].posicao == 1) { // caso em que so inseridos o cabealho do boletim de urna, primeiro QR Code\r\n\r\n            uint128 numProcesso = boletimUrna.proc;       \r\n            uint128 posicaoProcesso = indiceProcesso[numProcesso];\r\n            if(posicaoProcesso == 0) { // verifica se o processo eleitoral j est registrado\r\n\r\n                registraProcesso(boletimUrna, eleicoes, numProcesso); // registra a partir do processo eleitoral\r\n\r\n            } else if(listaProcessos[posicaoProcesso - 1].turnos[boletimUrna.turno].id == 0) { // com o processo eleitoral registrado, verifica-se se o turno j est registrado. Verificao necessria quando chegar no segundo turno das eleies, por exemplo.\r\n\r\n                registraTurno(boletimUrna, eleicoes, posicaoProcesso); // registra a partir do turno\r\n\r\n            }\r\n        }\r\n\r\n        if(boletimUrna.qrs[0].posicao < bus[hashBu].qrs.length) {\r\n\r\n            return hashBu; // QR Code j adicionado\r\n\r\n        } else if(boletimUrna.qrs[0].posicao == bus[hashBu].qrs.length + 1) { // verifica se est na posio correta do QR Code\r\n\r\n            if (boletimUrna.qrs[0].posicao > 1) {\r\n\r\n                uint8 idTurno = bus[hashBu].turno;\r\n                uint128 idProc = bus[hashBu].proc;\r\n                uint128 posicaoProcesso = indiceProcesso[idProc];\r\n\r\n                registraEleicoes(hashBu, eleicoes, listaProcessos[posicaoProcesso - 1].turnos[idTurno]);\r\n\r\n                bus[hashBu].qrs.push(boletimUrna.qrs[0]);\r\n\r\n            } else {\r\n                \r\n                bus[hashBu] = boletimUrna; // cria um tipo BU com as informaes at ento recebidas. Os dados so inseridos nesse BU para cada informao nova recebida, como um QR Code\r\n\r\n            }\r\n\r\n            if(boletimUrna.qrs[0].posicao == bus[hashBu].quantQrsEsperado) { // insere assinatura da urna contida no ltimo QR Code\r\n\r\n                bus[hashBu].assinaturaParte1 = boletimUrna.assinaturaParte1;\r\n                bus[hashBu].assinaturaParte2 = boletimUrna.assinaturaParte2;\r\n\r\n            }\r\n\r\n            // garante que o checkpoint mantm o que est sendo inserido ao longo dos QRs Codes e s altera quando h um novo checkpoint\r\n            if (bus[hashBu].cp.eleicao != boletimUrna.cp.eleicao && boletimUrna.cp.eleicao != 0) {\r\n                bus[hashBu].cp.eleicao = boletimUrna.cp.eleicao;\r\n            }\r\n\r\n            if (bus[hashBu].cp.cargo != boletimUrna.cp.cargo && boletimUrna.cp.cargo != 0) {\r\n                bus[hashBu].cp.cargo = boletimUrna.cp.cargo;\r\n            }\r\n\r\n            if (bus[hashBu].cp.partido != boletimUrna.cp.partido && boletimUrna.cp.partido != 0) {\r\n                bus[hashBu].cp.partido = boletimUrna.cp.partido;\r\n            }\r\n\r\n        } else {\r\n\r\n            revert invalidQRPosition({ // ordem invlida de insero do QR Code\r\n                positionExpected: bus[hashBu].qrs.length + 1,\r\n                positionReceived: boletimUrna.qrs[0].posicao\r\n            });\r\n\r\n        }\r\n\r\n        emit QRCodeAdded(hashBu, boletimUrna.qrs[0].posicao);\r\n        return hashBu;\r\n    }\r\n\r\n    function registraProcesso(BU calldata boletimUrna, Eleicoes[] calldata eleicoes, uint128 numProcesso) private returns(bool) {\r\n\r\n        uint128 posicaoProcesso = uint128(listaProcessos.length);\r\n\r\n        listaProcessos.push();\r\n\r\n        listaProcessos[posicaoProcesso].id = numProcesso;\r\n\r\n        bool res = registraTurno(boletimUrna, eleicoes, posicaoProcesso);\r\n\r\n        if (res) {\r\n            indiceProcesso[numProcesso] = posicaoProcesso + 1;\r\n        }\r\n\r\n        return res;\r\n    }\r\n\r\n    function registraTurno(BU calldata boletimUrna, Eleicoes[] calldata eleicoes, uint128 posicaoProcesso) private returns(bool) {\r\n        \r\n        Turno storage turno = listaProcessos[posicaoProcesso].turnos[boletimUrna.turno];\r\n        turno.id = boletimUrna.turno;\r\n        turno.pleito = boletimUrna.pleito;\r\n        turno.dataPleito = boletimUrna.dataPleito;\r\n\r\n        return registraEleicoes(boletimUrna.idHash, eleicoes, turno);\r\n    }\r\n\r\n    function registraEleicoes(bytes32 idHash, Eleicoes[] calldata eleicoes, Turno storage turno) private returns (bool) {\r\n\r\n        bytes32[4] memory abrange = [\r\n            keccak256(abi.encodePacked(bus[idHash].unfe, bus[idHash].municipio, bus[idHash].zona, bus[idHash].secao)),\r\n            keccak256(abi.encodePacked(bus[idHash].unfe, bus[idHash].municipio)), \r\n            keccak256(abi.encodePacked(bus[idHash].unfe)), \r\n            keccak256(abi.encodePacked(\"BR\"))\r\n        ];\r\n\r\n        for (uint8 i; i < eleicoes.length; i++) {\r\n\r\n            uint32 idEleicao = eleicoes[i].id;\r\n\r\n            if (idEleicao == 0) { // resgata a identificao da eleio quando no h essa informao no incio do contedo do QR Code\r\n                idEleicao = bus[idHash].cp.eleicao;\r\n            }\r\n\r\n            Eleicao storage eleicao = turno.eleicoes[idEleicao]; // eleies federais e estaduais so consideradas eleies diferentes, porm ocorrem no mesmo processo eleitoral\r\n            \r\n            for (uint8 j; j < 4; j++) {\r\n\r\n                Abrangencia storage abrangencia = eleicao.abrangencia[abrange[j]];\r\n\r\n                for (uint16 k; k < eleicoes[i].cargos.length; k++) {\r\n\r\n                    CargoInfo memory cargoQr = eleicoes[i].cargos[k];\r\n\r\n                    uint8 idCargo = cargoQr.id;\r\n\r\n                    if (idCargo == 0) { // resgata a identificao do cargo quando no h essa informao no incio do contedo do QR Code\r\n                        idCargo = bus[idHash].cp.cargo;\r\n                    }\r\n\r\n                    Cargo storage cargo = abrangencia.cargos[idCargo];\r\n                    \r\n                    if(cargo.info.id == 0) {\r\n                        cargo.info.id = idCargo;\r\n                    }\r\n\r\n                    if (cargo.info.tipo == 0) {\r\n                        cargo.info.tipo = cargoQr.tipo;\r\n                    }\r\n                    \r\n                    cargo.info.aptos += cargoQr.aptos;\r\n                    cargo.info.csec += cargoQr.csec;\r\n                    cargo.info.nomi += cargoQr.nomi;\r\n                    cargo.info.legc += cargoQr.legc;\r\n                    cargo.info.branco += cargoQr.branco;\r\n                    cargo.info.nulo += cargoQr.nulo;\r\n                    cargo.info.totalVotosCargo += cargoQr.totalVotosCargo;\r\n\r\n                    for (uint32 c; c < cargoQr.candidatos.length; c++) {\r\n                        \r\n                        uint128 localizacao = cargo.indiceCandidato[cargoQr.candidatos[c].id]; // 0 indica inexistncia\r\n\r\n                        if (localizacao == 0) { // verifica se o candidato j foi inserido\r\n\r\n                            cargo.info.candidatos.push(cargoQr.candidatos[c]); // inserido no vetor na posio 0\r\n                            cargo.indiceCandidato[cargoQr.candidatos[c].id] = uint128(cargo.info.candidatos.length); // o primeiro  inserido como posio 1, pois o mapping por default  0 e, nesse caso, se um candidato no existir, retornaria sempre a primeira posio do vetor\r\n\r\n                        } else {\r\n\r\n                            cargo.info.candidatos[localizacao - 1].votos += cargoQr.candidatos[c].votos;\r\n\r\n                        }\r\n\r\n                        uint32 idPartido = bus[idHash].cp.partido;\r\n\r\n                        if (idPartido != 0) { // adiciona os primeiros candidatos do QR Code que no foram alocados a um partido \r\n                            cargo.info.partidos[cargo.indicePartido[idPartido] - 1].candidatosPartido.push(cargoQr.candidatos[c].id);\r\n                        }\r\n                    }\r\n\r\n                    for (uint32 p; p < cargoQr.partidos.length; p++) {\r\n\r\n                        uint32 idPartido = cargoQr.partidos[p].id;\r\n\r\n                        if (idPartido == 0) { // resgata a identificao do partido quando no h essa informao no incio do contedo do QR Code\r\n                            idPartido = bus[idHash].cp.partido;\r\n                        }\r\n\r\n                        uint128 localizacao = cargo.indicePartido[idPartido]; // 0 indica inexistncia\r\n\r\n                        if (localizacao == 0) { // verifica se o partido j foi inserido\r\n\r\n                            cargo.info.partidos.push(cargoQr.partidos[p]); // inserido no vetor na posio 0\r\n                            cargo.indicePartido[idPartido] = uint128(cargo.info.partidos.length); // o primeiro  inserido como posio 1, pois o mapping por default  0 e, nesse caso, se um partido no existir, retornaria sempre a primeira posio do vetor\r\n\r\n                        } else {\r\n\r\n                            cargo.info.partidos[localizacao - 1].votosLegenda += cargoQr.partidos[p].votosLegenda;\r\n                            cargo.info.partidos[localizacao - 1].totalPartido += cargoQr.partidos[p].totalPartido;\r\n\r\n                            for (uint32 cp; cp < cargoQr.partidos[p].candidatosPartido.length; cp++) {\r\n\r\n                                cargo.info.partidos[localizacao - 1].candidatosPartido.push(cargoQr.partidos[p].candidatosPartido[cp]);\r\n\r\n                            }\r\n                        }                    \r\n                    }\r\n                }\r\n            }\r\n        }\r\n\r\n        return true;\r\n        \r\n    }\r\n\r\n    function obtemInfoTurno(uint128 idProc, uint8 idTurno) public view returns(uint8, uint32, uint32){\r\n        uint128 localizacaoProcesso = indiceProcesso[idProc] - 1;\r\n        return (listaProcessos[localizacaoProcesso].turnos[idTurno].id, listaProcessos[localizacaoProcesso].turnos[idTurno].pleito, listaProcessos[localizacaoProcesso].turnos[idTurno].dataPleito);\r\n    }\r\n\r\n    function obtemAbrangenciaUrna(string memory unfe, uint128 municipio, uint128 zona, uint128 secao) public pure returns(bytes32) {\r\n        return keccak256(abi.encodePacked(unfe, municipio, zona, secao));\r\n    }\r\n\r\n    function obtemAbrangenciaMunicipio(string memory unfe, uint128 municipio) public pure returns(bytes32) {\r\n        return keccak256(abi.encodePacked(unfe, municipio));\r\n    }\r\n\r\n    function obtemAbrangenciaUF(string memory unfe) public pure returns(bytes32) {\r\n        return keccak256(abi.encodePacked(unfe));\r\n    }\r\n\r\n    function obtemAbrangenciaNacional() public pure returns(bytes32) {\r\n        return keccak256(abi.encodePacked(\"BR\"));\r\n    }\r\n    \r\n    function obtemCargo(uint128 idProc, uint8 idTurno, uint32 idEleicao, bytes32 abrangencia, uint8 idCargo) private view returns(Cargo storage){\r\n        return listaProcessos[indiceProcesso[idProc] - 1].turnos[idTurno].eleicoes[idEleicao].abrangencia[abrangencia].cargos[idCargo];\r\n    }\r\n    \r\n    function obtemResultadoGeral(uint128 idProc, uint8 idTurno, uint32 idEleicao, bytes32 abrangencia, uint8 idCargo) public view returns(CargoInfo memory){\r\n        return obtemCargo(idProc, idTurno, idEleicao, abrangencia, idCargo).info;\r\n    }\r\n    \r\n    function obtemVotosDoCandidato(uint128 idProc, uint8 idTurno, uint32 idEleicao, bytes32 abrangencia, uint8 idCargo, uint128 idCandidato) public view returns(Candidato memory){\r\n        Cargo storage cargo = obtemCargo(idProc, idTurno, idEleicao, abrangencia, idCargo);\r\n        uint128 indice = cargo.indiceCandidato[idCandidato] - 1;\r\n        return cargo.info.candidatos[indice];\r\n    }\r\n    \r\n    function obtemVotosDoPartido(uint128 idProc, uint8 idTurno, uint32 idEleicao, bytes32 abrangencia, uint8 idCargo, uint128 idPartido) public view returns(Partido memory){\r\n        Cargo storage cargo = obtemCargo(idProc, idTurno, idEleicao, abrangencia, idCargo);\r\n        uint128 indice = cargo.indicePartido[idPartido] - 1;\r\n        return cargo.info.partidos[indice];\r\n    }\r\n\r\n    function obtemQRCode(bytes32 idBU, uint8 posicao) public view returns(QR memory) {\r\n        return bus[idBU].qrs[posicao];\r\n    }\r\n\r\n    function indiceListaProcesso(uint128 idProc) public view returns(uint128) {\r\n        return indiceProcesso[idProc] - 1;\r\n    }\r\n\r\n}",
  "sourcePath": "C:\\Users\\gabri\\Desenvolvimento\\TCC-teste\\contracts\\tot.sol",
  "compiler": {
    "name": "solc",
    "version": "0.8.18+commit.87f61d96.Emscripten.clang"
  },
  "schemaVersion": "3.4.13",
  "updatedAt": "2023-07-14T00:56:37.383Z",
  "devdoc": {
    "kind": "dev",
    "methods": {},
    "version": 1
  },
  "userdoc": {
    "kind": "user",
    "methods": {},
    "version": 1
  }
}